{
  "address": "0x4441782C65a4E43B90B8f09E6D0940B5A4d039E0",
  "abi": [
    {
      "inputs": [
        {
          "internalType": "address",
          "name": "priceFeedAddress",
          "type": "address"
        }
      ],
      "stateMutability": "nonpayable",
      "type": "constructor"
    },
    {
      "inputs": [],
      "name": "fund",
      "outputs": [],
      "stateMutability": "payable",
      "type": "function"
    },
    {
      "inputs": [
        {
          "internalType": "address",
          "name": "",
          "type": "address"
        }
      ],
      "name": "funderToAmount",
      "outputs": [
        {
          "internalType": "uint256",
          "name": "",
          "type": "uint256"
        }
      ],
      "stateMutability": "view",
      "type": "function"
    },
    {
      "inputs": [
        {
          "internalType": "uint256",
          "name": "",
          "type": "uint256"
        }
      ],
      "name": "funders",
      "outputs": [
        {
          "internalType": "address",
          "name": "",
          "type": "address"
        }
      ],
      "stateMutability": "view",
      "type": "function"
    },
    {
      "inputs": [],
      "name": "i_owner",
      "outputs": [
        {
          "internalType": "address",
          "name": "",
          "type": "address"
        }
      ],
      "stateMutability": "view",
      "type": "function"
    },
    {
      "inputs": [],
      "name": "priceFeed",
      "outputs": [
        {
          "internalType": "contract AggregatorV3Interface",
          "name": "",
          "type": "address"
        }
      ],
      "stateMutability": "view",
      "type": "function"
    },
    {
      "inputs": [],
      "name": "withdraw",
      "outputs": [],
      "stateMutability": "nonpayable",
      "type": "function"
    }
  ],
  "transactionHash": "0xf38cb6ede29b00013971211f00240bd4cf580f52bf1a0d1d8f44e9259890d5a3",
  "args": [
    "0x694AA1769357215DE4FAC081bf1f309aDC325306"
  ],
  "numDeployments": 1,
  "solcInputHash": "cdb0fc28f4eaf30e6eb104daf551c708",
  "bytecode": "0x6080604052678ac7230489e8000060005534801561001c57600080fd5b5060405162001001380380620010018339818101604052810190610040919061012b565b33600160006101000a81548173ffffffffffffffffffffffffffffffffffffffff021916908373ffffffffffffffffffffffffffffffffffffffff16021790555080600460006101000a81548173ffffffffffffffffffffffffffffffffffffffff021916908373ffffffffffffffffffffffffffffffffffffffff16021790555050610158565b600080fd5b600073ffffffffffffffffffffffffffffffffffffffff82169050919050565b60006100f8826100cd565b9050919050565b610108816100ed565b811461011357600080fd5b50565b600081519050610125816100ff565b92915050565b600060208284031215610141576101406100c8565b5b600061014f84828501610116565b91505092915050565b610e9980620001686000396000f3fe6080604052600436106100555760003560e01c80633ccfd60b1461005a5780634407e1e814610071578063741bef1a146100ae578063b60d4288146100d9578063dba6335f146100e3578063dc0d3dff1461010e575b600080fd5b34801561006657600080fd5b5061006f61014b565b005b34801561007d57600080fd5b5061009860048036038101906100939190610765565b6103a9565b6040516100a591906107ab565b60405180910390f35b3480156100ba57600080fd5b506100c36103c1565b6040516100d09190610825565b60405180910390f35b6100e16103e7565b005b3480156100ef57600080fd5b506100f861051a565b604051610105919061084f565b60405180910390f35b34801561011a57600080fd5b5061013560048036038101906101309190610896565b610540565b604051610142919061084f565b60405180910390f35b600160009054906101000a900473ffffffffffffffffffffffffffffffffffffffff1673ffffffffffffffffffffffffffffffffffffffff163373ffffffffffffffffffffffffffffffffffffffff16146101db576040517f08c379a00000000000000000000000000000000000000000000000000000000081526004016101d290610920565b60405180910390fd5b60005b6002805490508110156102995760006002828154811061020157610200610940565b5b9060005260206000200160009054906101000a900473ffffffffffffffffffffffffffffffffffffffff1690506000600360008373ffffffffffffffffffffffffffffffffffffffff1673ffffffffffffffffffffffffffffffffffffffff168152602001908152602001600020600082825461027e919061099e565b92505081905550508080610291906109f4565b9150506101de565b50600067ffffffffffffffff8111156102b5576102b4610a3d565b5b6040519080825280602002602001820160405280156102e35781602001602082028036833780820191505090505b50600290805190602001906102f992919061065b565b5060003373ffffffffffffffffffffffffffffffffffffffff164760405161032090610a9d565b60006040518083038185875af1925050503d806000811461035d576040519150601f19603f3d011682016040523d82523d6000602084013e610362565b606091505b50509050806103a6576040517f08c379a000000000000000000000000000000000000000000000000000000000815260040161039d90610afe565b60405180910390fd5b50565b60036020528060005260406000206000915090505481565b600460009054906101000a900473ffffffffffffffffffffffffffffffffffffffff1681565b60005461041f600460009054906101000a900473ffffffffffffffffffffffffffffffffffffffff163461057f90919063ffffffff16565b1161045f576040517f08c379a000000000000000000000000000000000000000000000000000000000815260040161045690610b6a565b60405180910390fd5b6002339080600181540180825580915050600190039060005260206000200160009091909190916101000a81548173ffffffffffffffffffffffffffffffffffffffff021916908373ffffffffffffffffffffffffffffffffffffffff16021790555034600360003373ffffffffffffffffffffffffffffffffffffffff1673ffffffffffffffffffffffffffffffffffffffff1681526020019081526020016000206000828254610511919061099e565b92505081905550565b600160009054906101000a900473ffffffffffffffffffffffffffffffffffffffff1681565b6002818154811061055057600080fd5b906000526020600020016000915054906101000a900473ffffffffffffffffffffffffffffffffffffffff1681565b60008061058b836105bb565b90506000670de0b6b3a764000082866105a49190610b8a565b6105ae9190610c13565b9050809250505092915050565b6000808273ffffffffffffffffffffffffffffffffffffffff1663feaf968c6040518163ffffffff1660e01b815260040160a06040518083038186803b15801561060457600080fd5b505afa158015610618573d6000803e3d6000fd5b505050506040513d601f19601f8201168201806040525081019061063c9190610cd1565b5050509150506402540be400816106539190610d4c565b915050919050565b8280548282559060005260206000209081019282156106d4579160200282015b828111156106d35782518260006101000a81548173ffffffffffffffffffffffffffffffffffffffff021916908373ffffffffffffffffffffffffffffffffffffffff1602179055509160200191906001019061067b565b5b5090506106e191906106e5565b5090565b5b808211156106fe5760008160009055506001016106e6565b5090565b600080fd5b600073ffffffffffffffffffffffffffffffffffffffff82169050919050565b600061073282610707565b9050919050565b61074281610727565b811461074d57600080fd5b50565b60008135905061075f81610739565b92915050565b60006020828403121561077b5761077a610702565b5b600061078984828501610750565b91505092915050565b6000819050919050565b6107a581610792565b82525050565b60006020820190506107c0600083018461079c565b92915050565b6000819050919050565b60006107eb6107e66107e184610707565b6107c6565b610707565b9050919050565b60006107fd826107d0565b9050919050565b600061080f826107f2565b9050919050565b61081f81610804565b82525050565b600060208201905061083a6000830184610816565b92915050565b61084981610727565b82525050565b60006020820190506108646000830184610840565b92915050565b61087381610792565b811461087e57600080fd5b50565b6000813590506108908161086a565b92915050565b6000602082840312156108ac576108ab610702565b5b60006108ba84828501610881565b91505092915050565b600082825260208201905092915050565b7f66756e6374696f6e2073656e646572206973206e6f74206f776e657200000000600082015250565b600061090a601c836108c3565b9150610915826108d4565b602082019050919050565b60006020820190508181036000830152610939816108fd565b9050919050565b7f4e487b7100000000000000000000000000000000000000000000000000000000600052603260045260246000fd5b7f4e487b7100000000000000000000000000000000000000000000000000000000600052601160045260246000fd5b60006109a982610792565b91506109b483610792565b9250827fffffffffffffffffffffffffffffffffffffffffffffffffffffffffffffffff038211156109e9576109e861096f565b5b828201905092915050565b60006109ff82610792565b91507fffffffffffffffffffffffffffffffffffffffffffffffffffffffffffffffff821415610a3257610a3161096f565b5b600182019050919050565b7f4e487b7100000000000000000000000000000000000000000000000000000000600052604160045260246000fd5b600081905092915050565b50565b6000610a87600083610a6c565b9150610a9282610a77565b600082019050919050565b6000610aa882610a7a565b9150819050919050565b7f63616c6c206661696c0000000000000000000000000000000000000000000000600082015250565b6000610ae86009836108c3565b9150610af382610ab2565b602082019050919050565b60006020820190508181036000830152610b1781610adb565b9050919050565b7f4469646e27742073656e6420656e6f7567680000000000000000000000000000600082015250565b6000610b546012836108c3565b9150610b5f82610b1e565b602082019050919050565b60006020820190508181036000830152610b8381610b47565b9050919050565b6000610b9582610792565b9150610ba083610792565b9250817fffffffffffffffffffffffffffffffffffffffffffffffffffffffffffffffff0483118215151615610bd957610bd861096f565b5b828202905092915050565b7f4e487b7100000000000000000000000000000000000000000000000000000000600052601260045260246000fd5b6000610c1e82610792565b9150610c2983610792565b925082610c3957610c38610be4565b5b828204905092915050565b600069ffffffffffffffffffff82169050919050565b610c6381610c44565b8114610c6e57600080fd5b50565b600081519050610c8081610c5a565b92915050565b6000819050919050565b610c9981610c86565b8114610ca457600080fd5b50565b600081519050610cb681610c90565b92915050565b600081519050610ccb8161086a565b92915050565b600080600080600060a08688031215610ced57610cec610702565b5b6000610cfb88828901610c71565b9550506020610d0c88828901610ca7565b9450506040610d1d88828901610cbc565b9350506060610d2e88828901610cbc565b9250506080610d3f88828901610c71565b9150509295509295909350565b6000610d5782610c86565b9150610d6283610c86565b9250827f7fffffffffffffffffffffffffffffffffffffffffffffffffffffffffffffff0482116000841360008413161615610da157610da061096f565b5b817f80000000000000000000000000000000000000000000000000000000000000000583126000841260008413161615610dde57610ddd61096f565b5b827f80000000000000000000000000000000000000000000000000000000000000000582126000841360008412161615610e1b57610e1a61096f565b5b827f7fffffffffffffffffffffffffffffffffffffffffffffffffffffffffffffff0582126000841260008412161615610e5857610e5761096f565b5b82820290509291505056fea2646970667358221220e57b64448901c6c95e5f4e6796a26b10b379c07ea84ce35bc08ef08e1822172e64736f6c63430008080033",
  "devdoc": {
    "kind": "dev",
    "methods": {},
    "version": 1
  },
  "userdoc": {
    "kind": "user",
    "methods": {},
    "version": 1
  },
  "storageLayout": {
    "storage": [
      {
        "astId": 56,
        "contract": "contracts/FundMe.sol:FundMe",
        "label": "MINIMUM_AMOUNT",
        "offset": 0,
        "slot": "0",
        "type": "t_uint256"
      },
      {
        "astId": 58,
        "contract": "contracts/FundMe.sol:FundMe",
        "label": "i_owner",
        "offset": 0,
        "slot": "1",
        "type": "t_address"
      },
      {
        "astId": 61,
        "contract": "contracts/FundMe.sol:FundMe",
        "label": "funders",
        "offset": 0,
        "slot": "2",
        "type": "t_array(t_address)dyn_storage"
      },
      {
        "astId": 65,
        "contract": "contracts/FundMe.sol:FundMe",
        "label": "funderToAmount",
        "offset": 0,
        "slot": "3",
        "type": "t_mapping(t_address,t_uint256)"
      },
      {
        "astId": 68,
        "contract": "contracts/FundMe.sol:FundMe",
        "label": "priceFeed",
        "offset": 0,
        "slot": "4",
        "type": "t_contract(AggregatorV3Interface)45"
      }
    ],
    "types": {
      "t_address": {
        "encoding": "inplace",
        "label": "address",
        "numberOfBytes": "20"
      },
      "t_array(t_address)dyn_storage": {
        "base": "t_address",
        "encoding": "dynamic_array",
        "label": "address[]",
        "numberOfBytes": "32"
      },
      "t_contract(AggregatorV3Interface)45": {
        "encoding": "inplace",
        "label": "contract AggregatorV3Interface",
        "numberOfBytes": "20"
      },
      "t_mapping(t_address,t_uint256)": {
        "encoding": "mapping",
        "key": "t_address",
        "label": "mapping(address => uint256)",
        "numberOfBytes": "32",
        "value": "t_uint256"
      },
      "t_uint256": {
        "encoding": "inplace",
        "label": "uint256",
        "numberOfBytes": "32"
      }
    }
  }
}